:020000040800F2
:10000000000002209D100008ED100008F11000080B
:10001000F5100008F9100008FD10000800000000AD
:10002000000000000000000000000000E1110008D6
:100030000111000800000000311100082111000822
:10004000F5110008251100082D110008C91100083C
:100050001D120008A51100082D1000080912000843
:100060000D11000839110008E5110008D911000828
:10007000991100084D110008351200082D120008D2
:100080001D1100089511000841170008DD11000836
:10009000511100088111000819120008C51100084B
:1000A000691100084111000801120008151100082B
:1000B000F9110008A11100088D1100089111000824
:1000C00031120008491100081112000865110008DA
:1000D000D11100086D1B00080D1200087D110008E9
:1000E000AD11000805110008FD110008A911000854
:1000F000611600083D11000811110008B111000837
:10010000E911000829110008B91100082912000896
:100110009D11000885110008C51A0008D1140008B7
:1001200089110008151200086111000875110008F6
:1001300021120008ED110008CD110008B5110008CA
:1001400071110008351100085D1100082512000822
:100150001911000859100008BD1100087911000894
:10016000C111000845110008F1110008D51100085F
:1001700059110008051200086D1100080000000068
:080180000911000855110008E7
:1001C00081F0004102E000BF83F0004330B54FEA08
:1001D00041044FEA430594EA050F08BF90EA020F75
:1001E0001FBF54EA000C55EA020C7FEA645C7FEA08
:1001F000655C00F0E2804FEA5454D4EB5555B8BF2B
:100200006D420CDD2C4480EA020281EA030382EA9B
:10021000000083EA010180EA020281EA0303362D2D
:1002200088BF30BD11F0004F4FEA01314FF4801C00
:100230004CEA113102D0404261EB410113F0004F12
:100240004FEA03334CEA133302D0524263EB4303C9
:1002500094EA050F00F0A780A4F10104D5F1200E67
:100260000DDB02FA0EFC22FA05F2801841F10001C2
:1002700003FA0EF2801843FA05F359410EE0A5F196
:1002800020050EF1200E012A03FA0EFC28BF4CF0C7
:10029000020C43FA05F3C01851EBE37101F000457D
:1002A00007D54FF0000EDCF1000C7EEB00006EEB8A
:1002B0000101B1F5801F1BD3B1F5001F0CD3490814
:1002C0005FEA30004FEA3C0C04F101044FEA44526B
:1002D00012F5800F80F09A80BCF1004F08BF5FEAF2
:1002E000500C50F1000041EB045141EA050130BDD2
:1002F0005FEA4C0C404141EB0101013C28BFB1F5E4
:10030000801FE9D291F0000F04BF01460020B1FA2E
:1003100081F308BF2033A3F10B03B3F120020CDA01
:100320000C3208DD02F1140CC2F10C0201FA0CF0DF
:1003300021FA02F10CE002F11402D8BFC2F1200C44
:1003400001FA02F120FA0CFCDCBF41EA0C019040FA
:10035000E41AA2BF01EB0451294330BD6FEA040443
:100360001F3C1CDA0C340EDC04F11404C4F120022E
:1003700020FA04F001FA02F340EA030021FA04F340
:1003800045EA030130BDC4F10C04C4F1200220FA97
:1003900002F001FA04F340EA0300294630BD21FAD5
:1003A00004F0294630BD94F0000F83F4801306BF9B
:1003B00081F480110134013D4EE77FEA645C18BF8F
:1003C0007FEA655C29D094EA050F08BF90EA020F26
:1003D00005D054EA000C04BF1946104630BD91EA1E
:1003E000030F1EBF0021002030BD5FEA545C05D121
:1003F0004000494128BF41F0004130BD14F5800460
:100400003CBF01F5801130BD01F0004545F0FE41D3
:1004100041F470014FF0000030BD7FEA645C1ABF08
:10042000194610467FEA655C1CBF0B46024650EA3F
:10043000013406BF52EA033591EA030F41F400216B
:1004400030BD00BF90F0000F04BF0021704730B5F1
:100450004FF4806404F132044FF000054FF00001C6
:1004600050E700BF90F0000F04BF0021704730B587
:100470004FF4806404F1320410F0004548BF40425C
:100480004FF000013EE700BF42004FEAE2014FEAB1
:1004900031014FEA02701FBF12F07F4393F07F4F8C
:1004A00081F06051704732F07F4208BF704793F08F
:1004B0007F4F04BF41F40021704730B54FF46074A2
:1004C00001F0004521F000411CE700BF50EA0102A5
:1004D00008BF704730B54FF000050AE050EA01024E
:1004E00008BF704730B511F0004502D5404261EBBE
:1004F00041014FF4806404F132045FEA915C3FF4FF
:10050000D8AE4FF003025FEADC0C18BF03325FEA9B
:10051000DC0C18BF033202EBDC02C2F1200300FA4C
:1005200003FC20FA02F001FA03FE40EA0E0021FA71
:1005300002F11444BDE600BF53B94AB9002908BF0F
:1005400000281CBF4FF0FF314FF0FF3000F0E2B841
:10055000ADF1080C6DE904CE03F062FADDF804E0B9
:10056000DDE9022304B0704700F1340191E838005E
:100570009C46A6464CF8045D90E8FF0FE54600BD9A
:1005800090EC210B704700BF80EC210B704700BF3F
:1005900090EC200B704700BF80EC200B704700BF31
:1005A000D0EC200B704700BFC0EC200B704700BFA1
:1005B000F0EC0201F0EC0211F0EC0221F0EC02315F
:1005C000F0EC0241F0EC0251F0EC0261F0EC02714F
:1005D000F0EC0281F0EC0291F0EC02A1F0EC02B13F
:1005E000F0EC02C1F0EC02D1F0EC02E1F0EC02F12F
:1005F000704700BFE0EC0201E0EC0211E0EC0221E8
:10060000E0EC0231E0EC0241E0EC0251E0EC02618E
:10061000E0EC0271E0EC0281E0EC0291E0EC02A17E
:10062000E0EC02B1E0EC02C1E0EC02D1E0EC02E16E
:10063000E0EC02F1704700BFB0FC0181B0FC019119
:10064000B0FC01A1B0FC01B1704700BFA0FC01816A
:10065000A0FC0191A0FC01A1A0FC01B1704700BF6A
:10066000EC4600B52DE900502DE9FF1F4FF00003C7
:100670002DE90C0001A903F08DFCDDF840E012B07B
:10068000704700BFEC4600B52DE900502DE9FF1F73
:100690004FF000032DE90C0001A903F0B7FCDDF8D1
:1006A00040E012B0704700BFEC4600B52DE90050A5
:1006B0002DE9FF1F4FF000032DE90C0001A903F005
:1006C000C7FCDDF840E012B0704700BFEC4600B553
:1006D0002DE900502DE9FF1F4FF000032DE90C001C
:1006E00001AB03F08BFCDDF840E012B0704700BFB7
:1006F000EC4600B52DE900502DE9FF1F4FF0000337
:100700002DE90C0001AA03F0FBFCDDF840E012B07B
:10071000704700BF704700BF844641EA000313F0F2
:1007200003036DD1403A41D351F8043B40F8043BF8
:1007300051F8043B40F8043B51F8043B40F8043BBB
:1007400051F8043B40F8043B51F8043B40F8043BAB
:1007500051F8043B40F8043B51F8043B40F8043B9B
:1007600051F8043B40F8043B51F8043B40F8043B8B
:1007700051F8043B40F8043B51F8043B40F8043B7B
:1007800051F8043B40F8043B51F8043B40F8043B6B
:1007900051F8043B40F8043B51F8043B40F8043B5B
:1007A00051F8043B40F8043B403ABDD2303211D3FB
:1007B00051F8043B40F8043B51F8043B40F8043B3B
:1007C00051F8043B40F8043B51F8043B40F8043B2B
:1007D000103AEDD20C3205D351F8043B40F8043BFB
:1007E000043AF9D2043208D0D2071CBF11F8013BF9
:1007F00000F8013B01D30B8803806046704700BFBF
:10080000082A13D38B078DD010F003038AD0C3F1CD
:100810000403D21ADB071CBF11F8013B00F8013BAF
:1008200080D331F8023B20F8023B7BE7043AD9D36E
:10083000013A11F8013B00F8013BF9D20B78037043
:100840004B7843708B7883706046704700000000DF
:1008500001F0FF01102A2BDB10F0070F08D010F871
:10086000013B013A8B422DD010F0070F42B3F6D175
:10087000F0B441EA012141EA014122F007047FF08E
:1008800000070023F0E80256083C85EA010586EAE5
:10089000010685FA47F5A3FA87F586FA47F6A5FA21
:1008A00087F68EB9EED1F0BC01F0FF0102F007022D
:1008B00032B110F8013B013A83EA010313B1F8D1D8
:1008C0000020704701387047002D06BF35460338B9
:1008D000073815F0010F07D1013015F4807F02BFF2
:1008E000013015F4C03F0130F0BC0138704700BF43
:1008F00000000000000000000000000000000000F8
:1009000030B490F800F020F007016FF0000C10F008
:10091000070491F820F040F048804FF000046FF099
:100920000700D1E9002391F840F000F1080082FAB5
:100930004CF2A4FA8CF283FA4CF3A2FA8CF34BBB80
:10094000D1E9022382FA4CF200F10800A4FA8CF2F9
:1009500083FA4CF3A2FA8CF3E3B9D1E9042382FAC7
:100960004CF200F10800A4FA8CF283FA4CF3A2FADC
:100970008CF37BB9D1E9062301F1200182FA4CF214
:1009800000F10800A4FA8CF283FA4CF3A2FA8CF37B
:10099000002BC6D0002A04BF04301A4612BAB2FA9D
:1009A00082F200EBD20030BC7047D1E9002304F0A2
:1009B0000305C4F100004FEAC50514F0040F91F8D7
:1009C00040F00CFA05F562EA05021CBF63EA050374
:1009D00062464FF00004AAE770B54FF0FF0C4CF4EC
:1009E000E06C1CEA11541DBF1CEA135594EA0C0F6D
:1009F00095EA0C0F00F0DEF82C4481EA030621EAA8
:100A00004C5123EA4C5350EA013518BF52EA0335E2
:100A100041F4801143F4801338D0A0FB02CE4FF094
:100A20000005E1FB02E506F00042E0FB03E54FF0C4
:100A30000006E1FB03569CF0000F18BF4EF0010EBC
:100A4000A4F1FF04B6F5007F64F5407404D25FEAB8
:100A50004E0E6D4146EB060642EAC62141EA55516B
:100A60004FEAC52040EA5E504FEACE2EB4F1FD0CAD
:100A700088BFBCF5E06F1ED8BEF1004F08BF5FEA2B
:100A8000500E50F1000041EB045170BD06F00046DD
:100A900046EA010140EA020081EA0301B4EB5C048A
:100AA000C2BFD4EB0C0541EA045170BD41F4801182
:100AB0004FF0000E013C00F3AB8014F1360FDEBFA7
:100AC000002001F0004170BDC4F10004203C35DA83
:100AD0000C341BDC04F11404C4F1200500FA05F306
:100AE00020FA04F001FA05F240EA020001F00042A7
:100AF00021F0004110EBD37021FA04F642EB06011D
:100B00005EEA430E08BF20EAD37070BDC4F10C0446
:100B1000C4F1200500FA04F320FA05F001FA04F20A
:100B200040EA020001F0004110EBD37041F10001F6
:100B30005EEA430E08BF20EAD37070BDC4F1200501
:100B400000FA05F24EEA020E20FA04F301FA05F269
:100B500043EA020321FA04F001F0004121FA04F211
:100B600020EA020000EBD3705EEA430E08BF20EAE1
:100B7000D37070BD94F0000F0FD101F0004640001B
:100B800041EB010111F4801F08BF013CF7D041EA9D
:100B9000060195F0000F18BF704703F000465200A1
:100BA00043EB030313F4801F08BF013DF7D043EA72
:100BB0000603704794EA0C0F0CEA135518BF95EA28
:100BC0000C0F0CD050EA410618BF52EA4306D1D1AF
:100BD00081EA030101F000414FF0000070BD50EACE
:100BE000410606BF1046194652EA430619D094EA58
:100BF0000C0F02D150EA013613D195EA0C0F05D142
:100C000052EA03361CBF104619460AD181EA030195
:100C100001F0004141F0FE4141F470014FF000004D
:100C200070BD41F0FE4141F4780170BD70B54FF0E8
:100C3000FF0C4CF4E06C1CEA11541DBF1CEA135568
:100C400094EA0C0F95EA0C0F00F0A7F8A4EB05044A
:100C500081EA030E52EA03354FEA013100F0888041
:100C60004FEA03334FF0805545EA131343EA12630A
:100C70004FEA022245EA111545EA10654FEA0026BF
:100C80000EF000419D4208BF964244F1FD0404F578
:100C9000407402D25B084FEA3202B61A65EB0305D4
:100CA0005B084FEA32024FF480104FF4002CB6EB91
:100CB000020E75EB030E22BFB61A754640EA0C0011
:100CC0005B084FEA3202B6EB020E75EB030E22BF51
:100CD000B61A754640EA5C005B084FEA3202B6EB92
:100CE000020E75EB030E22BFB61A754640EA9C0051
:100CF0005B084FEA3202B6EB020E75EB030E22BF21
:100D0000B61A754640EADC0055EA060E18D04FEADE
:100D1000051545EA16754FEA06164FEAC30343EA7E
:100D200052734FEAC2025FEA1C1CC0D111F4801F4B
:100D30000BD141EA00014FF000004FF0004CB6E744
:100D400011F4801F04BF01430020B4F1FD0C88BFE3
:100D5000BCF5E06F3FF6AFAEB5EB030C04BFB6EBEE
:100D6000020C5FEA500C50F1000041EB045170BDE1
:100D70000EF0004E4EEA113114EB5C04C2BFD4EB0E
:100D80000C0541EA045170BD41F480114FF0000E92
:100D9000013C90E645EA060E8DE60CEA135594EA0E
:100DA0000C0F08BF95EA0C0F3FF43BAF94EA0C0F11
:100DB0000AD150EA01347FF434AF95EA0C0F7FF486
:100DC00025AF104619462CE795EA0C0F06D152EADA
:100DD00003353FF4FDAE1046194622E750EA4106BE
:100DE00018BF52EA43067FF4C5AE50EA41047FF4CF
:100DF0000DAF52EA43057FF4EBAE12E74FF0FF3C34
:100E000006E000BF4FF0010C02E000BF4FF0010C04
:100E10004DF804CD4FEA410C7FEA6C5C4FEA430C7D
:100E200018BF7FEA6C5C1BD001B050EA410C0CBFCC
:100E300052EA430C91EA030F02BF90EA020F00202E
:100E4000704710F1000F91EA030F58BF994208BF95
:100E500090422CBFD8176FEAE37040F00100704752
:100E60004FEA410C7FEA6C5C02D150EA013C07D1A9
:100E70004FEA430C7FEA6C5CD6D152EA033CD3D0F4
:100E80005DF8040B704700BF8446104662468C46EE
:100E90001946634600E000BF01B5FFF7B7FF002821
:100EA00048BF10F1000F01BD4DF808EDFFF7F4FF4A
:100EB0000CBF012000205DF808FB00BF4DF808EDD5
:100EC000FFF7EAFF34BF012000205DF808FB00BFF8
:100ED0004DF808EDFFF7E0FF94BF012000205DF81A
:100EE00008FB00BF4DF808EDFFF7CEFF94BF0120CF
:100EF00000205DF808FB00BF4DF808EDFFF7C4FFC8
:100F000034BF012000205DF808FB00BF4FEA410C10
:100F10007FEA6C5C02D150EA013C0AD14FEA430CF3
:100F20007FEA6C5C02D152EA033C02D14FF0000030
:100F300070474FF0010070474FEA410212F500126E
:100F400015D211D56FF47873B3EB625212D94FEA10
:100F5000C12343F0004343EA505311F0004F23FAFA
:100F600002F018BF404270474FF00000704750EA4F
:100F7000013005D111F0004008BF6FF0004070470C
:100F80004FF00000704700BF0348044B834202D07B
:100F9000034B03B118477047E4060020E406002025
:100FA000000000000548064B1B1AD90F01EBA301F6
:100FB000491002D0034B03B118477047E4060020E4
:100FC000E40600200000000010B5064C237843B969
:100FD000FFF7DAFF044B13B10448AFF3008001239D
:100FE000237010BDE80600200000000064AA00087D
:100FF00008B5054B1BB105490548AFF30080BDE8B6
:101000000840FFF7CFBF00BF00000000EC06002043
:1010100064AA000808B50268034B9A4200D008BDD4
:1010200000F0A8FA08BD00BF00200140064A074BA7
:101030000748012151619B89064A03F00F03FF21F4
:1010400003701170704700BF003C01400000066053
:1010500005070020040700200D4B5A68920216D5A0
:101060005A680C4922F400125A60D1F8A034DB0609
:101070000DD5D1F8A034084A23F0100301204FF019
:10108000000CC1F8A03482F834C082F835007047F3
:101090000064024000600240F0070020DFF834D016
:1010A00000F018F90C480D490D4A002302E0D4580D
:1010B000C4500433C4188C42F9D30A4A0A4C0023A2
:1010C00001E013600432A242FBD303F00FFF00F0F3
:1010D0000BFA70470000022000000020E406002008
:1010E000E0AF0008E8060020940C0020FEE700BFF7
:1010F000FEE700BFFEE700BFFEE700BFFEE700BF60
:10110000704700BFFEE700BFFEE700BFFEE700BF7D
:10111000FEE700BFFEE700BFFEE700BFFEE700BF3F
:10112000FEE700BFFEE700BFFEE700BFFEE700BF2F
:10113000FEE700BFFEE700BFFEE700BFFEE700BF1F
:10114000FEE700BFFEE700BFFEE700BFFEE700BF0F
:10115000FEE700BFFEE700BFFEE700BFFEE700BFFF
:10116000FEE700BFFEE700BFFEE700BFFEE700BFEF
:10117000FEE700BFFEE700BFFEE700BFFEE700BFDF
:10118000FEE700BFFEE700BFFEE700BFFEE700BFCF
:10119000FEE700BFFEE700BFFEE700BFFEE700BFBF
:1011A000FEE700BFFEE700BFFEE700BFFEE700BFAF
:1011B000FEE700BFFEE700BFFEE700BFFEE700BF9F
:1011C000FEE700BFFEE700BFFEE700BFFEE700BF8F
:1011D000FEE700BFFEE700BFFEE700BFFEE700BF7F
:1011E000FEE700BFFEE700BFFEE700BFFEE700BF6F
:1011F000FEE700BFFEE700BFFEE700BFFEE700BF5F
:10120000FEE700BFFEE700BFFEE700BFFEE700BF4E
:10121000FEE700BFFEE700BFFEE700BFFEE700BF3E
:10122000FEE700BFFEE700BFFEE700BFFEE700BF2E
:10123000FEE700BFFEE700BF0120704708B503F0DE
:101240004FFE162303604FF0FF3008BD08B503F0D2
:1012500047FE16230360FEE770B5161E07DD0C4639
:101260008D19AFF3008004F8010BA542F9D1304687
:1012700070BD00BF4FF0FF30704700BF4FF4005308
:101280004B600020704700BF01207047002070476E
:101290000C490D4A0B6810B50C4C121B2BB11844AD
:1012A000904207D80860184610BD094B0B601844DF
:1012B0009042F7D903F014FE0C2303604FF0FF3384
:1012C000184610BD08070020000002200010000092
:1012D000980C0020034AD2F8883043F47003C2F817
:1012E0008830704700ED00E030B595B000F050FC5C
:1012F0000023CDE90B33CDE90433CDE9063328498A
:1013000001930A9303930D93086C264A40F0805092
:101310000864096C01F080510191019902931368EE
:1013200043F480431360136803F48043029306235D
:1013300001204FF480314FF4800202241093A8233F
:10134000CDE90801CDE90E4211930222042308A839
:10135000CDE91223029901F02DFA08B172B6FEE729
:101360000F220346CDE903244FF4A0554FF48052D9
:1013700003A80521CDE90535079201F031FC08B13C
:1013800072B6FEE700F034F900F0E2F900F0D4FAAA
:1013900000F0A6FA15B0BDE8304000F05FBA00BF1B
:1013A000003802400070004010B487B01D4B00228E
:1013B0000192596C41F480415964586C00F48040AA
:1013C000019001980292186C40F080501864186CDB
:1013D00000F08050029002980392186B40F00400D5
:1013E0001863186B00F00400039003980492186BC4
:1013F00040F080001863186B00F08000049004989F
:1014000005921C6B44F001041C631B6B03F0010389
:101410000593059B0F216FF0010007B05DF8044BA9
:1014200000F0A4BE0038024070B588B0234B002203
:1014300002921A6C42F020021A641B6C03F0200323
:101440000293054601A903A8029B01F087FC069BB5
:10145000D3B901F063FC0346194A1A4C1A49A2FB9E
:1014600003239B0C013B0022C4E90013204640F2F9
:10147000E7332261A260A261E36001F0C3FC06468B
:1014800030B1304608B070BD01F048FC4300E3E7DE
:10149000204601F099FD06460028F2D1372000F0E1
:1014A000A1FE0F2D01D90126EBE732462946372050
:1014B00000F05CFE054B1D60E3E700BF0038024012
:1014C00083DE1B430C0700200014004008000020AE
:1014D000034B1B686FF001021A6100F073BB00BF81
:1014E0000C070020704700BF08B5FFF7FDFE00F0B5
:1014F00005F802F089FAFFF7F5FFFAE708B500F002
:10150000C1F840F2E73140F2473000F0A3FA00F0B2
:10151000E5FABDE8084002490248012201F090BF07
:10152000540700203009002008B50F4B187878B117
:10153000012800D008BD002002F044FA0028F9D0AC
:101540000A4801F02DFDBDE80840094800F096BCAE
:1015500002F038FA0028EDD0044801F0EBFCBDE8B9
:101560000840034800F000BC05070020E808002000
:10157000A807002010B50D4800F0A4FC80B207EECB
:10158000900A9FED0B7AF8EEE77A67EE877A17EE0E
:10159000900AFEF779FF074B0022FFF71DFABDE81E
:1015A000104002460B46044803F054BBA807002035
:1015B0000108803900003E4098AA000808B502687A
:1015C000084B9A4200D008BD07490848642301220D
:1015D00001F0B2FEBDE8084003490448012201F0D1
:1015E0002FBF00BF00100140540700203009002029
:1015F00030B585B00025174B01951A6C164C17496C
:1016000042F080021A641B6C216003F08003019396
:10161000372263232046C4E9025301996260029590
:10162000A561039501F0EEFB8023002202A920466C
:10163000CDE9022301F0ACFD2A4601212C2000F067
:1016400095FD2C2000F0CEFD204601F0BDFC05B03C
:1016500030BD00BF0038024058070020001C004089
:10166000064B1B68DA68D20706D5054A6FF0010100
:101670001961136801331360704700BF58070020D9
:10168000A007002030B58DB00024294B00945A6C7F
:101690002848294D42F480725A645A6C02F48072D0
:1016A0000092009A01941A6B42F001021A631B6BBC
:1016B000029403F00103019306A901220323CDE95B
:1016C0000623CDE90344019B0594CDE908440A941F
:1016D00000F086FE194AAC604FF48033C5E9002360
:1016E0004FF0C0624FF04053C5E90A23284601235A
:1016F000EB616B612C612C7685F82040EC6085F8FD
:10170000304000F085FA00220123CDE9022302A92E
:1017100007232846049300F06DFC22460221122084
:1017200000F024FD122000F05DFD0DB030BD00BFC3
:101730000038024000000240A807002000200140BD
:10174000014800F0C7BB00BFA80700200000000050
:1017500030B593B03C4B3D48002400941A6B42F0E6
:1017600002021A631A6B02252A400092009A019421
:101770001A6B42F008021A631A6B02F00802019217
:10178000019A02941A6B42F010021A631A6B02F06B
:1017900010020292029A03949A6B42F001029A6339
:1017A0009A6B02F001020392039A04945A6C42F479
:1017B00080425A645B6C079403F4804304930C22C8
:1017C000049909924DF6337305A90593089406957B
:1017D00000F006FE4FF6807305A91D48059300F042
:1017E000FFFD802305A91B48059300F0F9FD0721A3
:1017F0000423CDE90A130A2317480C934FF08053B2
:101800001093082210239FED0E7BC0E904234FF4B0
:10181000805282620AAA4FF4002311468DED0E7B9E
:10182000C0E90644C0E90C44C5600D94846044627C
:10183000C4620462836301F0B5FA13B030BD00BF27
:10184000040000000000000000380240000C0240CC
:1018500000100240000402405008002030B583B060
:1018600000231B4A0193116B1A481B4C41F4800161
:101870001163126B02F480020192802282604FF4A5
:101880000062C0E9004342614FF400744FF400521B
:10189000C0E90343C0E906234FF080714FF44034A0
:1018A00004220323C0E90842C0E90A31019D016313
:1018B00000F0A6FC08B172B6FEE702460221452000
:1018C00000F054FC452003B0BDE8304000F08ABC75
:1018D00000380240F0070020A06402400000000031
:1018E00010B588B0124B134800240194196B41F0D5
:1018F000020119631B6B9FED0C7B03F00203019344
:10190000012202A900238DED027BCDE90423019B76
:1019100000F066FD22460321062000F027FC062089
:1019200000F060FC08B010BD0100000000001100D4
:101930000038024000040240F8B5454C002501265D
:1019400011270520A58000F04FF9A68005202780EB
:1019500000F04AF9D023238007236380412363806A
:1019600018236380D12323800A2010234FF0D20E46
:10197000658060806380A4F800E04FF0C00E668050
:101980004FF0020C6780A4F800E04FF03B0E63803C
:10199000C122A4F802E06580A4F802C06780132782
:1019A00022806380678088276780C5272780C827B3
:1019B000A4F802C0278037276580678025276780C5
:1019C00006276780042767801E2767802627678091
:1019D0004227678077276780442767800F276780C3
:1019E00012276780F3272780402767806080F620D2
:1019F00020808021F7206180208061803621218035
:101A00002F2161803A212180552161802021218070
:101A10002A2121803F2165806580668061802B219D
:101A20002180DF216580658066806180228022229E
:101A3000658005206380628000F0D6F8292323802A
:101A4000052000F0D1F82C2323802681F8BD00BFAB
:101A50000000066010B588B00023174A0193146C8B
:101A600044F001041464126C144C049302F001025B
:101A7000C4E90113CDE9053301920293079303935F
:101A8000E0602361A36120464FF08043019A236008
:101A900001F0B8F94FF4805304A92046049301F0F3
:101AA000CDFA2022002302A92046CDE9022301F02D
:101AB0006FFB08B010BD00BF00380240E8080020EE
:101AC000704700BF08B5044B1B686FF001021A6134
:101AD000FFF7F6FF08BD00BFA008002030B589B0B1
:101AE00000241E4B009404945A6C42F010025A6475
:101AF0005A6C02F010020092009A01941A6B42F0A4
:101B000001021A631B6B4FF4C060022103F0010352
:101B1000CDE9020101930322072302A91048019D88
:101B2000CDE9052300F05CFC0E480F490C234FF46F
:101B3000E132C0E90443C0E90012C0E90244C0E94F
:101B4000064401F067FB22462146252000F00EFBEB
:101B5000252000F047FB09B030BD00BF003802402F
:101B6000000002403009002000100140014801F04F
:101B7000FDBC00BF3009002010B54FF6FF731446BE
:101B8000024892B201F0D8FB204610BD3009002077
:101B900008B50B4B1A6842F400721A601A6842F4D6
:101BA00080621A601A6842F480721A60032000F0A2
:101BB000CBFA0F20FFF738FCFFF7F6FB002008BD3B
:101BC000003C0240034A044B11681B780B4413602D
:101BD000704700BF7809002004000020014B1868FE
:101BE000704700BF7809002038B50446FFF7F6FFBC
:101BF000631C054602D0044B1B781C44FFF7EEFF24
:101C0000401BA042FAD338BD04000020704700BF3B
:101C1000002800F09E8038B5056C04463DB1236C69
:101C2000DB060CD5002384F83C30012038BDFFF7DB
:101C3000EDFF6564236C84F83C50DB06F2D4236C22
:101C4000474A23F4885323F0020343F0020323643A
:101C50005168236821F44031516051686068014344
:101C600051605A682069A16822F480725A605A68EB
:101C700042EA00225A605A68E06822F040725A60D4
:101C80005A680A435A609A68A16A22F400629A600C
:101C90009A6802439A60334A91429A6851D022F07E
:101CA0007062E06A9A609A68114399609A6822F0BB
:101CB00040529A609A6802439A609A6822F002023F
:101CC0009A609A68217E42EA41029A6094F8202044
:101CD000002A40D05A68616A42F400625A605A6829
:101CE00022F460425A605A68013942EA41325A602D
:101CF000DA6AE16922F47002DA62DA6A013942EAE8
:101D00000152DA629A68616922F400729A609A68F4
:101D100094F8300042EA40229A609A6822F4806285
:101D20009A609A68002042EA81229A606064236C7B
:101D300023F0030343F001032364002384F83C30C1
:101D400038BD22F070629A609A6822F040529A6020
:101D5000B3E7012070475A6822F400625A60C7E76F
:101D6000002301400100000F10B490F83C3083B014
:101D70000022012B01926ED00123026880F83C30D2
:101D80009368DB0714D4384B384C1B689168A4FB6C
:101D900003439B0C03EB430341F00101916001936A
:101DA000019B2BB1019B013B0193019B002BF9D1BE
:101DB000936813F0010F036C3ED023F4E06323F02B
:101DC000010343F48073036453685C0505D5036C19
:101DD00023F4405343F480530364036C13F480539F
:101DE0001CBF436C23F00603436400216FF0220301
:101DF00080F83C10136053681D4943F0806343F042
:101E0000200353604B6813F01F0F1A4B20D19A42E6
:101E100009D003F580739A4222D0174B9A4212D10F
:101E20004B68DB060FD4936813F0405F0BD19368C7
:101E300043F08043936006E043F010030364436C77
:101E400043F001034364002003B05DF8044B704786
:101E50009A42F8D1E7E7022003B05DF8044B7047DF
:101E60004B68D906DFD0EEE70000002083DE1B437D
:101E700000230140002001400022014090F83C3046
:101E8000012B1DD00368012280F83C209A6822F0C3
:101E900001029A609A68D2070DD45A6822F08062D3
:101EA00022F020025A60036C23F4885323F00103CC
:101EB00043F001030364002380F83C301846704768
:101EC000022070470368D86C704700BF704700BF9E
:101ED000704700BF036870B51D685E68AA070446B6
:101EE00001D5B0064DD4690701D5320617D4E907EC
:101EF00001D5720604D4A90601D5720169D470BD5A
:101F00001A68D007F7D5236C43F480332364204646
:101F1000FFF7DCFF23686FF001021A60EBE7226C29
:101F2000D00603D4226C42F4005222649A6812F460
:101F3000401F1ED19A6B12F4401F02D09A685105BF
:101F400017D45A68520514D49A6812F0405F10D121
:101F5000227E72B95A6822F080025A60236C23F400
:101F600080532364236CD80503D4236C43F001030E
:101F70002364204600F0E6F823686FF00C021A6034
:101F8000B5E7226CD10603D4226C42F400722264BD
:101F90009A6812F0405F14D1227E92B9DA6A12F484
:101FA000700F23D15A6822F020025A60236C23F468
:101FB00080732364236CD80403D4236C43F001039F
:101FC00023642046FFF726F823686FF012021A6098
:101FD00089E7626C6FF0200542F0020262642046DD
:101FE0001D60FFF775FF23681D6070BD9A6852057C
:101FF000E7D4D7E770B590F83C3082B00246012BA9
:102000004FF00000019000F09380012382F83C30F3
:102010000D6813688C68092DA8B228D81E6905EBD5
:10202000450E4FF0070C0CFA0EFC26EA0C061E615A
:102030001E6904FA0EF434431C614C68062C04EB50
:1020400084012AD85C6B05394FF01F0C88400CFACC
:1020500001F124EA01015963596B08435863364979
:102060008B422BD0002082F83C0002B070BD00EB08
:10207000400CDE68ACF11E0C4FF0070E04FA0CF4B5
:102080000EFA0CFC26EA0C06DE60DE683443DC60E7
:102090004C68062C04EB8401D4D90C2C34D81C6B6E
:1020A00023391F26884006FA01F124EA0101196349
:1020B000196B0843204918638B42D3D1122D30D0BD
:1020C000A5F11003012BCDD81C494B68102D43F40A
:1020D00000034B60C6D11A4B01F146711B6801F534
:1020E0002E3101F28331A1FB03139B0C03EB83031D
:1020F0005B000193019B002BB4D0019B013B01933A
:10210000019B002BF9D1ADE7DC6A41391F268840DD
:1021100006FA01F124EA0101D962D96A0843D862BA
:102120009DE7D1F8043343F48003C1F8043399E701
:10213000022002B070BD00BF00200140002301401A
:1021400000000020704700BF0749CA6803024FF62D
:10215000FF0003F4E0630240134343F0BF6343F422
:102160000033CB60704700BF00ED00E01B4BDB6825
:10217000C3F3022300B5C3F1070EBEF1040F03F150
:10218000040C28BF4FF0040EBCF1060F1CD9A3F1BC
:10219000030C4FF0FF3303FA0CF322EA03024FF073
:1021A000FF3303FA0EF321EA030303FA0CF313439C
:1021B0001B010028DBB20ADB00F1604000F5614042
:1021C00080F800335DF804FB00229446E7E7044AF8
:1021D00000F00F00024413765DF804FB00ED00E010
:1021E000FCEC00E0002807DB044A4109012300F071
:1021F0001F00834042F82130704700BF00E100E03B
:1022000038B50446FFF7EAFC002C6DD023680022A5
:10221000022184F8351084F834201A6822F0010273
:1022200005461A6005E0FFF7D9FC431B052B37D89C
:1022300023681A68D107F6D4D4E90120E168024383
:102240000A43D4E90451A0692A430A43E1691D689D
:1022500002430A4331492940256A2A430A43616AF5
:10226000042924D01A605A6922F007021143D8B217
:102270002B4A59611038A2FB0052120929496FF309
:102280000903895CE1655F2888BF04333F228A40E7
:10229000A36500209A600123606584F8353038BD5D
:1022A00003232022626584F83530184638BDD4E90E
:1022B0000B512943114319605969A26A21F00701A2
:1022C000114341F00401002DD1D078B1B0F5005F89
:1022D00016D0022A03D9032AC9D1EA01C7D5402260
:1022E0000123626584F83530012038BD012A03D00E
:1022F00032F00202BBD1F0E7B5F1C07FB7D1EEE713
:10230000032AB4D801A050F822F000BFDF22000851
:10231000DB220008DF220008F92200083F8010F0CD
:10232000ABAAAAAA48AC000870B50446866DFFF7B0
:1023300055FC94F83530022B06D0802363650023CA
:1023400084F83430012070BD23681A6822F0160228
:102350001A605A6922F080025A61226C054642B323
:102360001A6822F008021A601A6822F001021A6044
:1023700005E0FFF733FC431B052B10D823681B68CF
:1023800013F00103F5D1E16D3F228A401846012187
:102390000023B26084F8351084F8343070BD032314
:1023A00020226265184684F83530002384F83430E2
:1023B00070BDA26C002AD3D1D6E700BF90F83530AB
:1023C000022B03D080234365012070470268052358
:1023D00080F83530136823F0010300201360704744
:1023E0002DE9F04FA44A0B68904285B04FF00002EF
:1023F00000F0D480DFF890824FF0010B8A4603E0B2
:102400000132102A00F09E800BFA02F101EA030665
:102410009943F5D1DAF8044004F0030C5100032588
:102420000CF1FF378D40012F6FEA050550D9BCF143
:10243000030F40F0A58107680CFA01F13D402943E4
:1024400014F4403F0160DBD08C4D00210391696C96
:1024500041F480416964696C01F4804103910399FE
:1024600022F0030101F1804101F59C3102F00307E4
:102470008D68BF004FF00F0C0CFA07FC25EA0C0E1C
:102480007F4DA84261D07F4DA84200F05681DFF811
:10249000FCC1604500F05881DFF8F4C1604500F0F0
:1024A0006181DFF8F0C1604500F06381DFF8E8C1C9
:1024B000604500F05081DFF8E4C160450CBF4FF08B
:1024C000070C4FF0080C0CFA07F74EEA070542E03C
:1024D000876807EA050EDAF80C708F4047EA0E07A6
:1024E0008760476827EA060EC4F30017974047EA5B
:1024F0000E074760C76807EA050EDAF808708F40D4
:1025000047EA0E07BCF1020FC76094D14FEAD20927
:1025100000EB890902F0070ED9F820700097DAF86D
:1025200010704FEA8E0E07FA0EF701970F2707FA81
:102530000EFE009F27EA0E0E019F47EA0E07C9F81C
:10254000207078E705B0BDE8F08F4FF0010C0CFA71
:1025500007F74EEA07058D60D8F80810F543E70243
:1025600054BF29403143C8F80810D8F80C10A7020E
:1025700054BF29403143C8F80C10D8F80410A70301
:1025800054BF29403143C8F80410D8F80010E403C0
:1025900054BF29403143C8F8001031E7DFF8DCB000
:1025A0004FF0010A02E00132102ACBD00AFA02F4FD
:1025B00003EA04069C43F6D14D685400032707FA4A
:1025C00004FC05F003086FEA0C0908F1FF3CBCF1BC
:1025D000010F65D9B8F1030F40F0DC80D0F800C0DE
:1025E00008FA04F40CEA090C44EA0C0415F4403F20
:1025F0000460D8D000240394DBF8444044F48044C1
:10260000CBF84440DBF8444004F480440394039C3A
:1026100022F0030404F1804404F59C3402F0030C1E
:10262000D4F808E00F274FEA8C0C07FA0CFC2EEACE
:102630000C0CC4F808C0144CEF02A4686FEA060C36
:1026400079D404EA0C04104FBC60FC68AF0270D46B
:1026500004EA0C040C4FFC607C68AF0367D40CEAFE
:102660000404094FED037C603C685ED40CEA04046A
:10267000054D2C6097E700BF000002400038024083
:102680000004024000080240003C0140000C0240EF
:10269000001002400014024000180240001C0240DA
:1026A000D0F808E0CF6809EA0E0E07FA04FC4CEAFD
:1026B0000E0CC0F808C0D0F804E0C5F3001C2EEAE8
:1026C000060E0CFA02FC4CEA0E0CC0F804C0D0F85E
:1026D0000CE08F6809EA0E0E07FA04FC4CEA0E0CB7
:1026E000B8F1020FC0F80CC07FF478AF4FEAD20CFB
:1026F0004FEA8C0C0CF1804C0CF5003C02F0070EFC
:10270000DCF8207000970F694FEA8E0E07FA0EF77B
:1027100001970F2707FA0EFE009F27EA0E0E019F72
:1027200047EA0E0ECCF820E058E73443A0E73443E4
:1027300097E734438EE7344385E74FF0020C0CFAF9
:1027400007F74EEA070506E74FF0030C0CFA07F708
:102750004EEA0705FFE64FF0060C0CFA07F74EEAC3
:102760000705F8E64FF0040C0CFA07F74EEA0705E8
:10277000F1E64FF0050C0CFA07F74EEA0705EAE61A
:10278000C76807EA050EDAF808708F4047EA0E07B7
:10279000C76050E6DFF818C08F68DCF80CE0A7408F
:1027A00009EA0E0E47EA0E0ECCF80CE016E700BF61
:1027B00000000240002800F0D8812DE9F0410368B4
:1027C000DD0782B004462FD59D498A6802F00C02CD
:1027D000042A00F0EC808A6802F00C02082A00F05B
:1027E000E2806368B3F5803F00F0EB80B3F5A02F83
:1027F00000F07381924D2A6822F480322A602A68A0
:1028000022F480222A60002B40F0E080FFF7E6F9F6
:10281000064605E0FFF7E2F9801B642800F200811C
:102820002B689F03F6D423689D0728D5844A9168B6
:1028300011F00C0F00F09B80916801F00C01082949
:1028400000F09180E368002B00F00C817D4B7C4E02
:1028500001221A60FFF7C2F9054605E0FFF7BEF94D
:10286000401B022800F2DC8033689F07F6D53368EE
:10287000226923F0F80343EAC203336023681A078E
:102880005CD45D073AD56E4A136C13F0805340F068
:1028900088800193136C43F080531364136C03F02E
:1028A00080530193019B0125674E3368D80540F1A1
:1028B000A780A368012B00F0B780052B00F01D81D5
:1028C0005F4E326F22F001023267326F22F0040253
:1028D0003267002B40F0AD80FFF780F941F2883875
:1028E000074605E0FFF77AF9C01B404500F29880E3
:1028F000336F9B07F6D4002D40F0F980A369CBB16C
:102900004F4DAA6802F00C02082A00F0BC80022B8E
:102910004C4B4FF000021A6600F0F980FFF75EF9A9
:10292000044604E0FFF75AF9001B022878D82B6808
:102930009B01F7D4002002B0BDE8F0816369FBB1D0
:10294000404B3F4E0122C3F8802EFFF747F9054662
:1029500004E0FFF743F9401B022861D8736F9B071F
:10296000F7D523688DE7526851023FF56BAF344AC3
:102970001268920738D5E268012A35D00120DAE7DB
:10298000304A2F4EC2F8803EFFF728F9054604E092
:10299000FFF724F9401B022842D8736F9F07F7D432
:1029A000DFE7002580E74A6851027FF51AAF244A25
:1029B000126892037FF538AF6268002A7FF434AF63
:1029C000DCE71F4A136843F480331360FFF706F90E
:1029D0001B4E054604E0FFF701F9401B64281FD891
:1029E00033689B03F7D51EE7154920690A6822F072
:1029F000F80242EAC0020A601A077FF542AF9DE77B
:102A0000336843F480733360FFF7E8F807463368B0
:102A1000D9053FF54EAFFFF7E1F8C01B0228F6D904
:102A2000032002B0BDE8F081054A136F43F00103B3
:102A30001367FFF7D3F8024F064641F288380AE0E1
:102A4000003802400000474200700040FFF7C6F81F
:102A5000801B4045E4D83B6F9A07F7D5002D3FF423
:102A60004DAF44E0424A434E1360FFF7B7F80546C6
:102A700004E0FFF7B3F8401B0228D1D83368990768
:102A8000F7D42368FBE6012B3FF478AF6B68E2696B
:102A900003F4800191427FF471AF226A03F03F0199
:102AA00091427FF46BAF616A47F6C0721A40B2EB95
:102AB000811F7FF463AFA26A520803F44031013AE8
:102AC000B1EB024F7FF45AAFE26A03F07063B3EBED
:102AD000026F14BF012000202DE7264B1A6842F434
:102AE00080221A601A6842F480321A606EE7214A26
:102AF000136C23F08053136400E71E4B1A6F42F0EF
:102B000004021A671A6F42F001021A6791E7FFF791
:102B100065F8064605E0FFF761F8801B02283FF6DE
:102B20007FAF2B689901F6D4D4E90731626A0B4371
:102B300043EA8213D4E90A2052080D4943EA0063AC
:102B4000013A43EA024301226B600A66FFF746F846
:102B5000084D044605E0FFF741F8001B02283FF648
:102B60005FAF2B689A01F6D5E4E60120704700BFFD
:102B70000000474200380240164908B58B6803F050
:102B80000C03042B1BD0082B01D0134808BD4A6846
:102B90004B68496813F4800302F03F0211D10E48DC
:102BA000C1F38811A1FB0001FDF7C6FC094B5B686E
:102BB000C3F3014301335B00B0FBF3F008BD0748EA
:102BC00008BD0648C1F388110023A1FB0001FDF7F1
:102BD000B3FCEBE7003802400024F400001BB70010
:102BE000002800F08780484A136803F007038B42EF
:102BF0002DE9F0410D46044609D2CBB2137013689B
:102C000003F007038B4202D00120BDE8F081236866
:102C1000980714D5590704D53C498A6842F4E05214
:102C20008A601A0704D539498A6842F460428A608A
:102C30003649A0688A6822F0F00202438A60DF0702
:102C400021D56268012A57D0931E012B2F4B1B6898
:102C50004DD99907D8D52D4EB36823F003031343FC
:102C6000B360FEF7BBFF41F28838074604E0FEF789
:102C7000B5FFC01B404544D8B368626803F00C033D
:102C8000B3EB820FF3D1204A136803F00703AB4282
:102C900006D9EBB21370136803F00703AB42B3D14C
:102CA00023685A0706D51949E0688A6822F4E05279
:102CB00002438A601B0707D5144A2169936823F4ED
:102CC000604343EAC1039360FFF756FF0F4A104C7D
:102CD00092681049C2F303120346A25C0E48D34027
:102CE00000680B60FEF7A0FB0020BDE8F0819801B2
:102CF000B1D489E701207047044B1B689E03AAD416
:102D000082E7032081E700BF003C02400038024018
:102D100088AA00080000002008000020044B054994
:102D20009B68054A0868C3F38223D35CD840704788
:102D3000003802400000002080AA0008044B05492A
:102D40009B68054A0868C3F34233D35CD840704798
:102D5000003802400000002080AA00080E4B0F221D
:102D600010B402609A680D4C02F0030242609A6847
:102D700002F0F00282609A6802F4E052C2609B683E
:102D8000DB0803F4E053036123685DF8044B03F0B0
:102D900007030B60704700BF00380240003C024050
:102DA000704700BF48B370B590F8493015460E46DD
:102DB000044603F0FF02DBB1214651F8080B00F096
:102DC00087FDA2682068314600F0B8FDD4E9010211
:102DD000236B294600F0D4FD2268A16852F8213007
:102DE00001252B4342F8213084F84950002070BD62
:102DF00080F84820FFF7D4FFDEE70120704700BFCE
:102E0000704700BF002800F08F8038B590F83D3043
:102E1000044603F0FF02002B00F081802268434942
:102E2000022384F83D308A42136864D0B2F1804FA7
:102E300030D0A1F57C418A422CD001F580618A42D4
:102E400028D001F580618A4224D001F578418A4278
:102E500051D037498A4221D001F580618A421DD084
:102E600001F580618A4219D0A1F598318A4215D0C6
:102E700001F580618A4211D001F580618A420DD04E
:102E8000A5696168E06823F080032B431360D0627A
:102E9000916210E0A16823F070030B432069A169DF
:102EA00023F44073034323F08003E0680B4361681D
:102EB0001360D0629162012353611369DB0703D56C
:102EC000136923F001031361012384F8463084F869
:102ED0003E3084F83F3084F8403084F8413084F844
:102EE000423084F8433084F8443084F8453084F824
:102EF0003D30002038BDA068216923F070030343F2
:102F000023F440730B43A16923F080030B43136048
:102F1000E368D3626368936263691363CBE780F805
:102F20003C20FFF76DFF79E701207047000001406A
:102F30000040014090F83D30012B2CD10368174A26
:102F40000221934280F83D101AD0B3F1804F17D080
:102F5000A2F57C42934213D002F5806293420FD0D7
:102F600002F5806293420BD002F57842934207D07B
:102F700002F57052934203D0A2F59432934204D1E9
:102F80009A6802F00702062A03D01A6842F001028A
:102F90001A60002070470120704700BF0000014008
:102FA0000368196A41F21112114208D1196A40F2FC
:102FB0004442114203D11A6822F001021A6001232F
:102FC00080F83D300020704790F83D30012B2FD124
:102FD00003681849022280F83D20DA688B4242F0EB
:102FE0000102DA6019D0B3F1804F16D0124A934231
:102FF00013D002F5806293420FD002F580629342B3
:103000000BD002F57842934207D002F570529342FA
:1030100003D0A2F59432934204D19A6802F00702D9
:10302000062A03D01A6842F001021A600020704795
:1030300001207047000001400004004090F83C204F
:10304000012A6ED00346026830B40120022483F8BE
:103050003C0083F83D40946824F47F4424F07704D6
:1030600094600C68602C76D011D8402C5BD02ED8A0
:10307000202C04D000F2888034F010011FD1916818
:1030800021F07001214341F00701916016E0B4F591
:10309000805F13D0B4F5005F33D0702C0FD1D1E92D
:1030A000015094682843CD6824F47F4140EA05200C
:1030B00008439060916841F0770191600020012100
:1030C000002283F83D1083F83C2030BC7047502C20
:1030D000F5D14868CC68116A21F00A010843116AE9
:1030E00021F001011162916921F0F00141EA04111E
:1030F00091611062916821F0700141F05701916077
:10310000DCE7D1E9015094682843CD6824F47F417D
:1031100040EA052008439060916841F48041916045
:10312000CCE7022070474868CC68116A21F00A0198
:103130000843116A21F001011162916921F0F00147
:1031400041EA041191611062916821F0700141F02F
:1031500047019160B2E74868CC68116A21F0A0018C
:1031600041EA0011106A20F010001062906920F40A
:10317000704040EA043090611162916821F0700162
:1031800041F06701916099E7302C3FF478AF96E702
:1031900090F83C20012A37D003460268022030B460
:1031A00083F83D0050680D68946820F07000284353
:1031B0005060164882421AD0B2F1804F17D0A0F565
:1031C0007C40824213D000F5806082420FD000F52F
:1031D000806082420BD000F57840824207D000F533
:1031E0007050824203D0A0F59430824204D14968E5
:1031F00024F080040C4394600020012283F83D20D9
:1032000083F83C0030BC704702207047000001404A
:10321000704700BF002800F0878038B590F8413033
:10322000044603F0FF02002B79D02368E0682422D3
:1032300084F84120DA6822F40052DA601969A26841
:1032400021F4405101432069196102436069D96842
:103250000243E06921F4164121F00C0102430A43C4
:10326000DA605A69A069314922F4407202438B4204
:103270005A6136D02E4A934233D0FFF74FFDE269B0
:103280001921B2F5004FD4E90053A0FB01012BD066
:103290009A009B0FFDF750F9264AA2FB00135B0929
:1032A000642101FB130000013230A2FB00201B014E
:1032B00003EB5013AB602A6922F490422A616A69D9
:1032C00022F02A026A61EA680023202142F40052B7
:1032D000EA60636484F8411084F84210184663631E
:1032E00038BDFFF72BFDCAE7DA184FF000035B414A
:1032F000FDF722F90F4AA2FB00314909642303FBC1
:103300001103DB003233A2FB0323C3F342121B0978
:1033100002EB011203F4F8731344AB60CBE780F8BF
:103320004020FFF775FF80E7012070470010014043
:10333000001401401F85EB512DE9F843044690F835
:103340004100202855D10D4609B1164612B9012079
:10335000BDE8F8831F464FF000082123C4F84480DD
:1033600084F84130FEF73AFCA368A684B3F5805F89
:103370008146E68440D0E38C22689BB2002B47D084
:103380007B1C24D113681F06FCD5002D2CD015F80A
:10339000013B5360E38C013B9BB2E384E38C9BB223
:1033A000002BEFD113685906FCD5202384F8413057
:1033B0000020BDE8F883002D3DD015F8013B536097
:1033C000E38C013B9BB2E384E38C9BB213B31368A1
:1033D0001E06F0D4FEF702FCA0EB09039F4211D3B6
:1033E00087B12268D368F2E738F8023BC3F30803D9
:1033F000CFE70220BDE8F8832369002BBBD1A846A4
:103400001D46B8E7202384F841300320BDE8F88347
:10341000781CC7D013685B06C7D4FEF7DFFBA0EBB0
:1034200009039F42EED3002FECD02268D3681368C3
:103430005B06F2D5B9E738F8023BC3F30803BEE7F1
:1034400090F84230202B20D101B10AB901207047F9
:1034500010B4046981620023222103638285C2853E
:103460004364036880F842101CB1DA6842F4807249
:10347000DA605A695DF8044B42F001025A61DA6879
:1034800042F020020020DA6070470220704700BF3F
:10349000704700BF704700BF08B5806B0023C3852D
:1034A000C384FFF7F7FF08BD704700BF836801685A
:1034B000826AB3F5805F42D0002B39D04B6803F0AD
:1034C0007F031370826A0132C38D8262013B9BB21B
:1034D000C385002B32D100B50268D16821F02001EC
:1034E00083B0D160D16821F48071D16051694FF00F
:1034F000200C21F00101516180F842C04363016B4F
:10350000012925D1036302F10C0353E8003F23F0A6
:10351000100302F10C0C4CE800310029F3D11368C0
:10352000DB061AD4818DFFF7BFFF03B05DF804FB03
:103530000369002BC2D14B68DBB2C2E77047036955
:10354000002BF8D14B68C3F3080322F8023BBBE71A
:10355000FEF734F803B05DF804FB00230193136811
:10356000019353680193019BDCE700BF30B503680A
:103570001A68DD68596912F00F0F83B0044670D1E4
:10358000910602D5A90600F1A380216B01290BD079
:10359000100602D5290600F1A580520602D568065C
:1035A00000F1BF8003B030BDD006F1D5E906EFD5FC
:1035B000002201921A6801925A680192019A5A698E
:1035C000550640F13C81E06B0268526892B2002AD5
:1035D000E8D0A18D9142E5D9E285C269B2F5807F3C
:1035E00036D003F10C0252E8002F22F4807203F16E
:1035F0000C0545E800210029F3D103F1140252E83B
:10360000002F22F0010203F1140545E800210029F2
:10361000F3D103F1140252E8002F22F0400203F12B
:10362000140545E800210029F3D1202284F8422026
:10363000216303F10C0252E8002F22F0100203F183
:103640000C0545E800210029F3D1FEF76DFEA18DA0
:1036500002236363E38DC91A204689B2FFF724FF72
:10366000A0E711F0010140F0CF8015F4907F8CD0DD
:10367000D0070BD5E80540F1DE80606C40F001001A
:10368000606450075CD5002940F0C280900766D581
:10369000100700F1CD80616C002983D0910609D517
:1036A000AA0607D594F84220222A03D12046FFF724
:1036B000FDFE23685A69616C02F0400201F00801C6
:1036C00052EA010555D12046FFF7E4FE656469E73B
:1036D00090F84230222B7FF465AF03B0BDE8304054
:1036E000FFF7E4BE94F84120212A7FF45BAFA16884
:1036F000226AB1F5805F00F0DD80511C21621278F2
:103700005A60E28C013A92B2E284002A7FF44AAF16
:10371000DA6822F08002DA60DA6842F04002DA60A9
:1037200040E7DA68202122F04002DA60204684F87F
:103730004110FFF7ADFE35E7E8059ED4500767D48A
:1037400090070CD50029A3D0616C41F0040161649D
:103750001107A0D5616C41F0080161649BE7100777
:1037600099D505F020000843F4D1626C002AA1D15C
:1037700018E703F10C0252E8002F22F4907203F1D3
:103780000C0040E800210029F3D103F1140252E8B3
:10379000002F22F0010203F1140040E8002100296B
:1037A000F3D1226B012A22D00022202184F842107A
:1037B00022635A69550634D503F1140252E8002FEA
:1037C00022F0400203F1140040E800210029F3D167
:1037D000E06B30B33D4B0365FEF7F0FD00283FF48E
:1037E000E1AEE06B036D03B0BDE83040184703F174
:1037F0000C0252E8002F22F0100203F10C0040E806
:1038000000210029F3D1CFE7D00795D450070CD57C
:10381000616C41F002016164910795D4110799D45C
:1038200039E72046FFF736FEBCE691078CD4F5E772
:10383000A9068FD499E750073FF528AF80E7E18DBF
:10384000E28DA08D92B289B2002A3FF4ABAE411A4C
:1038500089B200293FF4A6AE03F10C0252E8002F12
:1038600022F4907203F10C0545E800200028F3D102
:1038700003F1140252E8002F22F0010203F11405B3
:1038800045E800200028F3D1202284F8422020635C
:1038900003F10C0252E8002F22F0100203F10C0594
:1038A00045E800200028F3D1022363632046FFF798
:1038B000FBFD77E6216900297FF41FAF32F8021B78
:1038C000C1F30801596022621BE700BF9934000868
:1038D00030B4D1E90134CA680D6923431343A4F11C
:1038E000080C4C690A682B432343CC6923430C6AB8
:1038F000234350F8224024F0010440F822404C6A4F
:1039000023438C6A2343CC6A23430C6B23438C6987
:10391000C96B23430B4350F822400749BCFA8CFC87
:1039200021404FEA5C1C0B4343EA8C1340F82230E1
:1039300030BC0020704700BF8000F0FF10B40B685F
:103940008C6923434C6800EB820243EA0413D1E9FB
:10395000020443EA002343EA0443D1E904415068E6
:1039600004F1FF3C023943EA0C5343EA016300F0DF
:1039700040410B4300205DF8044B5360704700BF8B
:10398000B3F5804F05D06FF0704340F8223000202F
:10399000704730B40B688D6950F822402B434D6856
:1039A00043EA05138D68C96843EA052343EA0143E6
:1039B000034921400B4340F8223030BC00207047BF
:1039C0000000F0CF10B40E4B0E4C1A782168520054
:1039D00021FA02F301334FF0030C0CFA02FC03F05E
:1039E000030321EA0C01B3FBF0FC0CFB103000FADE
:1039F00002F211432160C0B25DF8044B704700BF72
:103A0000050700207C09002008B5044B1A7802B98C
:103A100008BD00221A70FDF787FD08BD04070020CD
:103A20002DE9F047089D0E4604460F46002B4AD16B
:103A300094468C45B2FA82F260D942B1C2F12003B9
:103A4000974020FA03F30CFA02FC1F4394404FEA1C
:103A50001C4E1FFA8CF6B7FBFEF1230C0EFB117700
:103A600043EA074301FB06F098420AD91CEB030323
:103A700001F1FF3780F01581984240F2128102393E
:103A800063441B1AA4B2B3FBFEF00EFB103344EAEE
:103A9000034400FB06F6A6420AD91CEB040400F11D
:103AA000FF3380F00081A64240F2FD80644402387A
:103AB00040EA0140A41B00211DB1D4400023C5E908
:103AC0000043BDE8F0878B4205D90DB1C5E900017F
:103AD00000210846F5E7B3FA83F1002946D1B34245
:103AE00002D3824200F2F580841A66EB03020120C1
:103AF0001746002DE5D0C5E90047E2E7002A40F06F
:103B00009380A1EB0C034FEA1C471FFA8CFE0121A6
:103B1000B3FBF7F607FB1630230C43EA00430EFB1A
:103B200006F0984208D91CEB030306F1FF3802D2D5
:103B3000984200F2D08046461B1AA4B2B3FBF7F0BD
:103B400007FB103344EA03440EFB00FEA64508D9E8
:103B50001CEB040400F1FF3302D2A64500F2B6804C
:103B60001846A4EB0E0440EA0640A5E7C1F1200781
:103B70008B4022FA07FC4CEA030C06FA01FE20FAFD
:103B800007F426FA07F344EA0E0400FA01F84FEAB4
:103B90001C404FEA1449B3FBF0FE1FFA8CF600FB01
:103BA0001E3349EA03430EFB06F9994502FA01F276
:103BB0000BD91CEB03030EF1FF3A80F08580994589
:103BC00040F28280AEF1020E6344A3EB0909A4B275
:103BD000B9FBF0F300FB139944EA094403FB06F632
:103BE000A64208D91CEB040403F1FF3068D2A642B8
:103BF00066D9023B644443EA0E40A41BA0FB02E6E4
:103C0000B4427346B14652D34FD05DB1B8EB030214
:103C100064EB090404FA07F722FA01F31F43CC40CE
:103C2000C5E9007400214CE7C2F1200120FA01F33C
:103C30000CFA02FC26FA01F1964033434FEA1C4786
:103C40001FFA8CFEB1FBF7F007FB1016190C41EAC6
:103C5000064100FB0EF68E4204FA02F408D91CEB72
:103C6000010100F1FF382DD28E422BD90238614478
:103C7000891B9BB2B1FBF7F607FB161143EA014320
:103C800006FB0EF1994208D91CEB030306F1FF383D
:103C900014D2994212D9023E63445B1A46EA0041AB
:103CA00036E73946EDE6184602E7F045ADD2BEEB01
:103CB000020366EB0C060138B146A6E74646ECE780
:103CC000034698E74046D3E7D6467EE76444023889
:103CD00047E708460DE7023E63442DE703685A00B4
:103CE0004CBF43F0004323F000431844704700BF2B
:103CF0002DE9F04759B301F1FF380546164647460E
:103D00004FF0000A0AEB070101EBD171491005EBF6
:103D1000C1094846FFF7E2FF88454FEAC104034660
:103D200010D004F10800B342284407D8FFF7D6FFAB
:103D30000138B04208D201F1010AE3E78A4506D012
:103D40004F1EDFE7B042F9D84846BDE8F0874FF094
:103D500000094846BDE8F087012809D0022805D0AF
:103D6000044B00280CBF18460020704702487047DB
:103D700002487047294400083944000831440008CB
:103D800030B5224B83B004468D1E43B301A92846AB
:103D9000AFF30080F0B101992A46FFF7A9FF014671
:103DA000C0B1FFF79BFF4B68A064012B2BD0002B09
:103DB00001F1040025DBFFF791FF00232365036871
:103DC000E064002B12DBFFF789FF0346002023612C
:103DD00003B030BD00230920236103B030BD0C4B7C
:103DE0000C49C91AC91018460191D5E7C3F30360FD
:103DF000FFF7B2FF031E0CBF09200020236103B0B0
:103E000030BD0123DAE700230520E0E700000000D1
:103E1000DCAE0008D4AF00080368DA0710B504462A
:103E200006D49B0700F1500009D5FCF7B1FB2368CD
:103E3000590709D51A070ED5DB0613D510BDFCF7B7
:103E40009FFB23685907F5D404F1D800FCF7A8FBC1
:103E500023681A07F0D404F5AC70FCF7A9FB2368BB
:103E6000DB06EBD404F5EC70BDE81040FCF7E4BBD6
:103E70000346006800B11844704700BF704700BF98
:103E800070B504460E46316C2046FFF779FF0546B3
:103E900088B9326C62612369324621460120984715
:103EA0000828F0D0072806D12846316CFFF7E6FF36
:103EB000301DFCF759FB00F0D5FD00BF2DE9F047A0
:103EC00001F1040CC768D0F8188006469146BCE89A
:103ED0000F00ADF5767D03AC0FC4BCE80F000FC436
:103EE000BCE80F000FC49CE80F0002AD4FF0000EBD
:103EF00084E80F00C5F800E021E02B6C73614FF4FB
:103F0000F47229467CA8FCF707FC33697CAA314689
:103F1000504698478A9BAB644946CDE90058824693
:103F2000334601203246B847814630BB4FF4F47225
:103F30007CA92846FCF7F0FBBAF1080F1AD1296CCE
:103F40003046FFF71DFF09F1090904465FFA89FAB7
:103F50000028D2D0AB6BAB643246CDE90058334673
:103F60004AF010010120B84738B920460DF5767D9A
:103F7000BDE8F087BAF1070F05D0092420460DF5FA
:103F8000767DBDE8F0874846296CFFF777FF03A8E8
:103F9000FCF7EAFAF0B5CB6BFBB001F1040C0B6453
:103FA0000E460546BCE80F0001AC0FC4BCE80F008C
:103FB0000FC4BCE80F000FC49CE80F004FF0FF37A0
:103FC00084E80F00009706E02B696A462946984767
:103FD0000828044608D110992846FFF7D1FE00288A
:103FE000F2D009207BB0F0BD6846FFF715FF062C24
:103FF000F7D131462846FFF743FF00BFC160D96BB8
:104000008261196400221946FFF758BF70B5C6686F
:1040100043690B64AEB903690A4604460D4601467E
:1040200002209847072805D008280FD129462046A6
:10403000FFF726FF3046296CFFF720FF281DFCF70D
:1040400093FA0122FFF73AFF00F00CFD00F00AFDA1
:10405000C26822B1CA6B0A640022FFF72FBFFFF7C4
:1040600099BF00BF052915D8DFE801F00A03140342
:10407000030501207047009A436C136000207047CD
:1040800043B90F2A06D800EB820200205368009A39
:10409000136070470220704700B585B00A460023C0
:1040A00003A900911946FFF7DDFF039805B05DF8FD
:1040B00004FB00BF052915D8DFE801F00A0314034B
:1040C000030501207047009B1B6843640020704774
:1040D00043B90F2A06D8009B00EB82021B6853608D
:1040E000002070470220704710B584B0002303AC55
:1040F000039200940A461946FFF7DCFF04B010BD96
:1041000070B5D36BADF5107D02F1040C1364054658
:104110000C46BCE80F000DF15C0EAEE80F00BCE8E9
:104120000F00AEE80F00BCE80F00AEE80F009CE8FF
:104130000F004FF0FF368EE80F00169610E0FFF7E5
:10414000D3FF214616A8A847034616AA08206946A9
:1041500083B9049B9847052806460CD0092809D046
:1041600026996846FFF70CFE03460C216A4616A8FE
:10417000002BE4D0092616A8FFF74EFE30460DF5B9
:10418000107D70BD2DE9F04F1646CA6C89B00D4602
:1041900052F8041B069200F0030C002B79D00C0C93
:1041A0008DF81D400904E4B2059102EB840202215E
:1041B0008DF81C10296DBCF1020F08BFAA6B11F01D
:1041C000010809D005A9304600F0CEFA002856D1E2
:1041D000082009B0BDE8F08F1768002FF2D000F07A
:1041E0000801CDE90118E3469A46BAF1020F4CD016
:1041F0001788548802F10409AA6C24F001030F21E6
:10420000304603EB0208FFF747FF80453BD827F015
:10421000010202EB0803834294BF002301236400E0
:1042200004F0020407F001072743012F4ED0022FAC
:1042300035D027BBBBF1000F02D0002B40F0D3805C
:1042400009F104021768002FCFD105A93046DDF827
:10425000088000F089FA90B9B8F1000FB8D00F21AA
:104260003046FFF719FF0E2102463046FFF73CFFAC
:104270006C4A0F213046FFF737FF072000E0092086
:1042800009B0BDE8F08F0023C9E7546802F10809BE
:10429000B2E7090205918DF81D30032188E7D9F8AE
:1042A000004024F00048BBF1000F47D12BB1019B27
:1042B000002B5CD0B8F1000F59D0002C01DA09F1C5
:1042C000040908F1010209EB8202BBE7BBF1000F10
:1042D0001CD1C3B1D9F80430D9F80020991C4FEA99
:1042E000D272CCD005F158040133049400F08E80D2
:1042F00009F10400FFF7BCFD04AB01462846AFF30B
:104300000080002859D109F108029BE70D213046B1
:10431000FFF7C2FE2C6A8442F5D1AB6A9945F2D10F
:104320004846FFF7DBFC0F2102463046FFF7DCFE74
:104330002A4600213046FFF7D7FE9EE70D21304682
:10434000FFF7AAFE2F6A8742B7D1AB6A9945B4D16D
:1043500000240423C5E90B434B44C5F828806B6354
:10436000D9F80030A34258DB01230293A9E705F1F5
:104370005803CDF80CB009F10407B34600241E46DB
:104380000BE038460496FFF773FD0022014604ABAC
:104390002846AFF300800437F8B9444504F101041E
:1043A000EFD10D215846FFF777FE049BC5F8289002
:1043B0000246C5E90823062062E704460D2130467F
:1043C000FFF76AFE049E2862022C04BFEE6205F12C
:1043D0002C06C5E90969062052E75E46D9F8004077
:1043E000DDF80CB069E74846FFF778FC09F10403F3
:1043F0000446AB632846AFF3008000283FF43FAF8C
:1044000022460F213046FFF76FFE36E730460D217A
:10441000FFF742FE26462862DBE708F1010209EBBE
:1044200082007EE7000000000023FFF7ABBE00BF64
:104430000123FFF7A7BE00BF0223FFF7A3BE00BF03
:104440002DE9F0410646C4B01446052900F2D88093
:10445000DFE811F012002D00D6006C00910006007C
:10446000836B002C40F0CC8053F8042B42648363B0
:10447000002044B0BDE8F081002B40F0C180856B86
:104480001FFA84FC012006F1040E00FA03F111EA80
:104490000C0F2A4604D052F8041B4EF82310154680
:1044A0000133102BF1D1A704E2D4B563E0E7012B6F
:1044B0004FEA1447A4B200F08380052B40F0A0809F
:1044C00007EB0408B8F1200F00F29A800F2F40F29A
:1044D0009980002CCCD00268500700F1188101931C
:1044E00002AD2846FCF760F84FEA440CA7F1100033
:1044F000B16B019B0CF1FF3C05EBC0000CF1010C12
:10450000043801EB8C0251F8044B40F8044F9142FF
:10451000F9D1012B00F0DE800F2FB16302D822A861
:10452000FCF736F82846FCF73BF8A1E7032B67D1E8
:10453000A7B207EB1443102B4FEA144460D803686A
:10454000190700F1BF8022AD2846FCF753F87A0026
:10455000B06B05EBC404531E42B1011B625844F812
:10456000042B013B5A1CF9D100EBC700B06328466D
:10457000FCF71EF87CE7002B42D1102C40D80368D2
:10458000DD0600F1978022AD2846FCF75FF8B76B97
:10459000294600234FF0010C0CFA03F22242384660
:1045A00003F1010303D050F8042B0A600746042BE3
:1045B00001F10401F0D1B7632846FCF73DF857E755
:1045C0003A19102A1CD8102F1AD00268D00708D523
:1045D000304622F0030240F8502B0193FBF7D4FF42
:1045E000019B019322AD2846FBF7CEFFB26B019BE6
:1045F000002C58D10432B2632846FBF7C1FF37E7DD
:10460000022036E7B8F1100F026865D9D40772D5D9
:1046100022F0010242F0020240F8502B0193FBF716
:10462000BBFF3268019B12F0040F66D122AD284611
:104630000193FBF7B1FF02A8FBF7B6FFC7F110012A
:104640004900B26B019BA8F1100C4C1E05EBC70092
:104650000134043802EB840152F8044B40F8044F53
:104660008A42F9D1BCF1000F5AD0102F384638BF1A
:1046700010204FEA4C0C103802AD0CF1FF3C05EB5A
:10468000C0003BE7304622F0010242F0020240F84F
:10469000502B22AD0193FBF77FFF2846FBF77CFFF1
:1046A000B26B24B3019B6400013C05EBC7004FF0E3
:1046B000000CCDE723F01003036000F5EC70FBF76E
:1046C000C5FF60E723F00803036000F5AC70FBF75B
:1046D00091FF38E722AD8DE7D107D3D422AD28462C
:1046E0000193FBF759FFB26B019B002CDBD12846ED
:1046F000FBF74EFFBCE6540798D5304622F0040283
:1047000040F8D82B0193FBF74FFF019B8EE7304613
:1047100022F0040240F8D82B0193FBF745FFDFE6B7
:10472000012B3FF467AF0F2FB2633FF6A1AEDEE778
:10473000027A03467AB9427AA2B14168013A10B4CA
:104740004272086803220C1D1A7202025C60000E9D
:1047500010BC1A6070470068013A1A7202021A60AF
:10476000000E7047B02070472DE9F043064685B033
:104770000D464FF000082846FFF7DAFFB028044640
:1047800000F01C8107065BD500F0F003A02B1AD0C7
:1047900030D8802B00F08280902B27D100F00D03C1
:1047A0000D2B23D002AF002300F00F021946009713
:1047B0003046FFF757FC002300970D22194630467C
:1047C000FFF778FCD7E7C34303F007034FF47F629A
:1047D0001A41010702F47F6201D542F480420023AE
:1047E00019463046FFF72CFE0028C4D0092005B03A
:1047F000BDE8F083B02B68D0C02B3DD1C62800F0B7
:10480000CA80C72800F0DF8000F0F803C02B00F05A
:10481000EC80C82800F0F780C928E7D12846FFF7C8
:1048200087FF020300F00F0002F470220130024300
:10483000012105233046FFF703FE00289BD0D5E772
:104840008300DBB21F1D0DF1080900231946CDF8C6
:1048500000900D223046FFF705FC029BCDF800903A
:1048600060064CBFDF1BFF1800230D22194630469F
:104870000297FFF71FFC7EE700F0F803D02BB5D1BD
:1048800000F007020132052342F4002201213046E4
:10489000FFF7D6FD00283FF46EAFA7E72846FFF7E5
:1048A00047FF24022043B0F5004F9FD004010023AE
:1048B000A2B219463046FFF7C3FD002896D114F482
:1048C000004F18BF4FF0010855E7A0F1B103042BCA
:1048D00000F2B580DFE803F05529160C030003AAA7
:1048E0000023009219460D223046FFF7BBFB42E73A
:1048F00000231A4605213046FFF7A2FD00283FF4A9
:104900003AAF73E72846FFF713FF020300F00F00EA
:10491000013002F470220123024319463046FFF7AA
:104920008FFD00283FF427AF60E700230DF1080951
:104930000D221946CDF800903046FFF793FB28462C
:10494000FFF7F6FE0206029C4FF002070BD500F0BF
:104950007F00B840044428460294FFF7E9FE0306AE
:1049600007F10707F3D4B840002304F501740444A9
:10497000CDF800900D22194630460294FFF79AFBBD
:10498000F9E62846FFF7D4FE431EDBB20E2B0246A3
:104990007FF625AF2AE72846FFF7CAFE020300F09C
:1049A0000F00013002F470220323024319463046FF
:1049B000FFF746FD00283FF4DEAE17E7B8F1000F21
:1049C0002DD0002013E72846FFF7B2FE431EDBB2CE
:1049D0000E2B02463FF60AAF002304213046FFF7B4
:1049E0002FFD00283FF4C7AE00E700F00F020132B0
:1049F000032342F4202219463046FFF721FD002808
:104A00003FF4B9AEF2E62846FFF792FE00F0F0025E
:104A100000F00F031032013343EA023208E702AC20
:104A20004346414600940E223046FFF71BFB0F22FF
:104A30000094434641463046FFF73CFBC1E700F097
:104A4000FC03B42B3FF4D2AE00F007020132012385
:104A500042F4002219463046FFF7F2FC00283FF4EA
:104A60008AAEC3E608B5062000F0A2F90120FCF7E3
:104A7000EDFB00BF024A0349034800F0C9B800BF7C
:104A80000C0000205D740008200000200C4B4168E1
:104A9000994210B5044601D002F0E0FCA168094B30
:104AA000994202D0204602F0D9FCE168064B9942B7
:104AB00004D02046BDE8104002F0D0BC10BD00BFBD
:104AC00080090020E8090020500A00202DE9F84361
:104AD000314A324C3249DFF8DC90DFF8DC80314F6C
:104AE0001160002504232946082204F15C00C4E972
:104AF00003352D4EA560C4E90055C4E9055565662A
:104B000000F004F904F15800C4E90749C4E9098731
:104B1000E66200F013FA2946244B6367082204F189
:104B2000C400C4E91A55C4E91E552567C4F8CC5021
:104B3000C4F8805000F0EAF804F1680304F1C00002
:104B4000C4F88430C4E92298C4E9247600F0F6F968
:104B5000174BC4F8DC30294604F596700822C4E9E6
:104B60003455C4E93855C4F8D850C4F83451C4F8A1
:104B7000E85000F0CBF804F1D003C4E93D87C4F855
:104B8000F09004F59470C4F8FC60C4F8EC30BDE813
:104B9000F84300F0D3B900BFB80A00208009002014
:104BA000754A0008E14C0008054D000809000100A5
:104BB000120002007D4C0008A14C000810B504460C
:104BC0000A4800F0BFF9636B23B9094B094A1B6817
:104BD000626323B1BDE81040044800F0B5B9FFF7A7
:104BE00075FFBDE81040014800F0AEB9C80A0020CA
:104BF000B80A00208D4A0008014800F0A3B900BFA0
:104C0000C80A0020014800F09FB900BFC80A002070
:104C10002DE9F8430746884616464FF00009D6E9C5
:104C20000154013D10D4A389012B08D9B4F90E30E9
:104C300001332146384602D0C04749EA0009013D08
:104C40006B1C04F16804EED13668002EE7D14846AB
:104C5000BDE8F8830FB400B5074983B004AB08681A
:104C600053F8042B8168019300F096FD03B05DF8C2
:104C700004EB04B0704700BF1800002010B50C46CC
:104C8000B1F90E1000F0E8F8002803DB236D0344AF
:104C9000236510BDA38923F48053A38110BD00BFF9
:104CA0002DE9F0410C46B1F90C101F46CB05054625
:104CB00016460BD421F48051A1813B46B4F90E1065
:104CC00032462846BDE8F04100F0F4B8B4F90E10C1
:104CD0000223002200F0AAF8B4F90C10EAE700BFA2
:104CE00010B50C46B1F90E1000F0A0F8B4F90C3074
:104CF000421C0EBF23F4805343F480532065A381EC
:104D000010BD00BFB1F90E1000F07EB8830730B5BA
:104D100047D0541E002A3ED0CAB2034601E0013CEF
:104D200039D303F8012B9D07F9D1032C2CD9CDB22F
:104D300005EB05250F2C05EB054535D9A4F110022F
:104D400022F00F0C03F1100EE6444FEA121C1A4633
:104D5000C2E90055C2E9025510327245F8D10CF192
:104D6000010214F00C0F03EB021204F00F0C13D02D
:104D7000ACF1040323F003030433134442F8045B4F
:104D80009342FBD10CF003042CB1C9B21C4403F8CC
:104D9000011BA342FBD130BD64461346002CF4D165
:104DA000F9E703461446C0E71A46A446E0E700BF09
:104DB00038B5144B1F281D681ED8D5F83821044675
:104DC00062B152F820304BB1012B05D0591C0FD0E5
:104DD000002142F820109847002038BD284600F0F6
:104DE00067F8224601462846BDE8384000F04AB838
:104DF00016232B60012038BD16232B604FF0FF30A7
:104E000038BD00BF1800002038B5074D0022044609
:104E100008462A60FCF72EFA431C00D038BD2B68E8
:104E2000002BFBD0236038BDBC0A002038B50C46EF
:104E3000084D8446114620461A4600232B606446DE
:104E4000FCF724FA431C00D038BD2B68002BFBD0A4
:104E5000236038BDBC0A002038B50C46084D844696
:104E6000114620461A4600232B606446FCF7F4F9ED
:104E7000431C00D038BD2B68002BFBD0236038BD0D
:104E8000BC0A002070B50C46084D0346002620469B
:104E900011461C462E60FCF7D1F9431C00D070BDB2
:104EA0002B68002BFBD0236070BD00BFBC0A002024
:104EB000FCF7C2B938B50C46084D84461146204669
:104EC0001A4600232B606446FCF756FE431C00D0B4
:104ED00038BD2B68002BFBD0236038BDBC0A0020F6
:104EE000014B1868704700BF1800002070B50F4BC9
:104EF0000F4DAB42A3EB050607D0B610002455F8C2
:104F0000043B01349847A642F9D805F0ABFD094DA2
:104F1000094B5E1BAB424FEAA60606D0002455F8AB
:104F2000043B01349847A642F9D870BDD4AF0008BD
:104F3000D4AF0008D4AF0008DCAF0008704700BF52
:104F4000704700BF704700BF704700BF024B13B1EE
:104F5000024800F005B87047000000000D7C000812
:104F6000002301461A46184602F0A4BE2DE9F84374
:104F700006460820894602F05DFEDFF8A48005465B
:104F8000304600F0FDFBD8F808305F6827F00307D3
:104F9000A7F11104A4EB09042C44B4FBF5F4013C83
:104FA00005FB04F4A54208DC0021304602F01CFE9B
:104FB000D8F808303B44984205D0304600F0E6FB74
:104FC0000020BDE8F8836142304602F00DFE01305A
:104FD0000FD0114AD8F808303F1B47F001075F6037
:104FE000136830461B1B136000F0D0FB0120BDE8A6
:104FF000F8830021304602F0F7FDD8F80820831A24
:105000000F2BDADD43F001035360044B02491B68A8
:10501000C01A0860D1E700BFD00A00206401002058
:105020007001002000297CD02DE9F0410C4680461B
:1050300000F0A6FB54F8043C754FA4F1080523F0DA
:1050400001016818BE684268864222F0030200F03F
:105050008380DE07426000EB020C33D454F8084C26
:10506000DCF804302D1B2144AC6807F1080C6445C2
:1050700003F0010364D0D5F80CE0C4F80CE0CEF8DE
:105080000840002B00F0818041F001036B6001605B
:10509000B1F5007F22D27868CB080122490901339B
:1050A0008A40024357F833107A6007EBC302083A8C
:1050B000C5E9021247F83350CD604046BDE8F041E3
:1050C00000F064BBDCF80430DB072BD541F00103B2
:1050D000B1F5007F44F8043C0160DCD3B1F5206FEA
:1050E0004FEA512353D28B0903F1390003F13802FF
:1050F000C300F818FB580838984203D161E09B6858
:10510000984204D05A6822F003028A42F7D8D8683D
:10511000C5E902308560DD604046BDE8F04100F041
:1051200035BB7047114407F1080C836863453FD0D5
:10513000C268DA60936041F001036B606950A7E7D1
:10514000002B5FD10A44D0E90213CB60996042F092
:1051500001036B60AA50B0E7DB070A4407D454F898
:10516000083CED1A1A44D5E90213CB60996042F06D
:1051700001036B60274BBD601B6893429DD8264B93
:1051800040461968FFF7F2FE97E71144CDE7142B6C
:1051900008D9542B1DD80B0B03F16F0003F16E02DD
:1051A000C300A6E703F15C0003F15B02C300A0E7C4
:1051B00041F00103C7E90455C5E902CC6B606950B1
:1051C0007BE779689210012404FA02F20A437A60BC
:1051D0009EE7B3F5AA7F06D8CB0B03F1780003F165
:1051E0007702C30085E740F25452934206D88B0CF5
:1051F00003F17D0003F17C02C3007AE74FF47E7374
:105200007E2276E741F001036B60016055E700BF45
:105210007001002068010020000B00202DE9F04FF4
:1052200001F10B05162D83B0064623D8102900F294
:10523000AF8000F0A5FA102518230220B74F3B4499
:10524000A3F108025C68944200F01E816368E26882
:10525000A16823F00303CA602344304691605A6872
:1052600042F001025A6000F091FA0834204603B07F
:10527000BDE8F08F35F0070500F18A80A94200F201
:10528000878000F07DFAB5F5FC7FC0F06E816B0A77
:1052900000F08280042B00F21D81AB0903F139007C
:1052A00003F1380EC3009D4F3B44A3F1080C5C682A
:1052B000A44507D10DE0002AE16880F2DF808C452B
:1052C00007D00C46636823F003035A1B0F2AF2DD54
:1052D0007046DFF860823C69444500F0BC8063683A
:1052E00023F0030CACEB05030F2B00F34281002BE2
:1052F000C7E9048880F22D81BCF5007FD7F804E06F
:1053000080F0C8804FEADC0101314FEA5C1C0123C8
:1053100003FA0CF357F83120A2604EEA030E07EBB4
:10532000C103083BE360C7F804E047F83140D460AC
:1053300083104FF0010C0CFA03FCF44532D81CEA40
:105340000E0F08D120F003004FEA4C0C1CEA0E0FA0
:1053500000F10400F8D007EBC00AD6468146DEF81B
:105360000C300BE0596821F003014A1B0F2A1C4640
:10537000DB6800F3BB80002A80F2DE809E45F1D11D
:1053800009F1010919F0030F0EF1080EE7D119E137
:105390000C233360002469E74FF4007340204FF082
:1053A0003F0E80E7BC68636823F00309A94503D377
:1053B000A9EB05030F2B51DC594B1B68082003F1A7
:1053C000100804EB0903009302F034FC554A1368FB
:1053D0000133A844834605D008F1FF388044434296
:1053E00003EA08084146304602F0FEFBB0F1FF3FF9
:1053F0004C4A824600F0D880009B834200F2D28063
:10540000494B186840440BF1FF311860844640F066
:10541000FC801AEA010F40F0F880D7F808A0C844D1
:1054200048F00102CAF80420404B1968814238BF95
:1054300018603F4B1968814238BF1860544622F00B
:105440000308A845A8EB050301D30F2B06DC304663
:1054500000F09CF99EE7D7F804E069E7621943F091
:10546000010345F0010565603046BA60536000F005
:105470008DF90834204603B0BDE8F08FA2682344BC
:10548000D16030468A60EAE6DC68A3427FF4DEAE93
:1054900002301EE7BCF5206F4FEA5C227BD3142A52
:1054A00000F2128102F15C03DB005B32F918FB5859
:1054B0000839994203D1ECE09B68994204D05A68BC
:1054C00022F003026245F7D8D968C4E902318C6042
:1054D000DC602DE7142B6AD9542B00F2FE802B0BD5
:1054E00003F16F0003F16E0EC300DCE6D4F808C0D0
:1054F0003046661945F001056560CCF80C30C3F8FC
:1055000008C042F00103C7E90466C6E90288736077
:10551000625000F03BF90834A8E600BF700100209B
:10552000000B002064010020D00A0020FC0A0020AB
:10553000F80A002078010020214430464A6842F0F1
:1055400001024A6054F8082FD3609A6000F01EF9F7
:105550008CE6A4443046DCF8043043F00103CCF878
:10556000043000F013F9083480E6E80805F1080378
:1055700064E6621943F0010145F0010565603046BB
:10558000C7E90422C2E90288516044F80C3000F0F7
:10559000FDF808346AE64FEA9C1202F13903DB0099
:1055A000383283E7BC4228D0BC68626847E703F121
:1055B0005C0003F15B0EC30075E65AF808395345E9
:1055C00040F0D98010F0030F00F1FF30F5D17B6877
:1055D00023EA0C037B604FEA4C0C9C453FF6E2AE9D
:1055E000BCF1000F04D1DDE64FEA4C0C09F10409CF
:1055F0001CEA030FF8D04846ADE6604B186808EB8C
:10560000000C0BF1FF31C3F800C0106801306ED000
:10561000009AAAEB020262441A601AF00702CDE96E
:10562000002340D0C2F108029244D04408EA0100AD
:105630005A44121A02EA010B5946304602F0D4FAD3
:10564000421C019B6FD0A0EB0A0000EB0B0818680E
:10565000C7F808A048F001025844BC42CAF8042028
:1056600018603FF4E1AEB9F10F0F43D96168A9F1B9
:105670000C0222F0070201F00101114361604FF0BA
:10568000050CA1180F2AC1E901CC54D8DAF804207E
:10569000CAE692104FF0010C0CFA02F24EEA020E2A
:1056A000C7F804E011E70AEB08020A40ABEB02027C
:1056B00002EA010B5946304602F096FA431C019B60
:1056C000C1D1DDF800B0C2E7542A17D84FEA1C3226
:1056D00002F16F03DB006E32E8E6B3F5AA7F17D85C
:1056E000EB0B03F1780003F1770EC300DBE5C2F8A2
:1056F00000A092E70123CAF80430A8E6B2F5AA7F19
:1057000024D84FEADC3202F17803DB007732CDE6B1
:1057100040F25452934224D8AB0C03F17D0003F1C4
:105720007C0EC300BFE5009A083A9044A8EB0A0833
:105730004FF0000B8BE7304604F108010093FFF7B0
:1057400071FC009BD7F808A018689FE740F25453FB
:105750009A420CD84FEA9C4202F17D03DB007C3276
:10576000A4E64FF47E737F204FF07E0E9BE54FF44E
:105770007E737E229AE67B682DE700BFD00A002068
:105780000148FFF7DFBB00BFC00A00200148FFF758
:10579000DBBB00BFC00A00202DE9F04FD9B0164690
:1057A00005911C4683460B9302F01AFA0368159381
:1057B0001846FBF7A5F808221490002128A8FFF747
:1057C000A5FABBF1000F04D0DBF83430002B01F058
:1057D0007380059A536EB2F90C20D80702D4910554
:1057E00040F17886970406D4059942F4005223F4D8
:1057F00000538A814B669D0401F13384059AB2F906
:105800000C30190740F1CC801269002A00F0C880E2
:1058100003F01A020A2A00F0D2809FED9B7B00233E
:10582000CDE92D33CDE917338DED107B2FAA0E93E3
:105830002C92144616931C9319930793B246944BDB
:10584000D3F8E45002F0C6F928AA0346009224A92E
:1058500052465846A847002800F0D080C0F2C680C3
:10586000249A252A034601D09A44E8E7BAEB0607B2
:10587000054640F0C780002319464FF0FF328DF8EF
:10588000873008930AF1010A9AF8003006920491D1
:105890000AF1010AA3F120025A2A00F2FB80DFE894
:1058A00012F04703F900F9004003F900F900F9008C
:1058B0006A00F900F9007A028C02F90085025203AD
:1058C000F900F6025B005B005B005B005B005B00C5
:1058D0005B005B005B00F900F900F900F900F900DA
:1058E000F900F9007301F9000702A30273017301C3
:1058F0007301F900F900F900F9009C02F900F900C0
:10590000FD02F900F900F9002402F900C502F900CE
:10591000F900E806F900F900F900F900F900F900CA
:10592000F900F9007301F9000702560273017301CF
:105930007301150356020002F9009202F9003103C7
:105940000E071F030002F90024027C001107F90072
:10595000F9001507F9007C00A3F1300200211AF8C4
:10596000013B01EB810102EB4101A3F13002092A65
:10597000F5D908918EE7584602F032F94368199339
:105980001846FAF7BDFF1C900546584602F028F964
:1059900083681793002D40F006869AF8003077E769
:1059A000059D5846294601F0FFFF002841F0A684D6
:1059B000B5F90C3003F01A020A2A7FF42EAF0599CC
:1059C000B1F90E20002AFFF628AF4A6ED50702D49F
:1059D000980541F11C81059923463246584601F04D
:1059E000EDFC0790079859B0BDE8F08F0822002120
:1059F00028A8FFF78BF901239A4420E7BAEB0607A2
:105A0000054610D02E9B3B442E932D9B0133072B34
:105A1000C4E900672D9310DC0834079B3B440793CF
:105A2000002D7FF428AF2E9B002B41F0D980059BE1
:105A30000022B3F90C302D9218E005992CAA584693
:105A400001F0FCFC78B92FACE7E705992CAA584681
:105A500001F0F4FC002800F08C800A9B1BB10A992D
:105A60005846FFF7DFFA059BB3F90C30059A526EE2
:105A7000D00740F10C815A0601F1FD82079859B018
:105A8000BDE8F08FAFF300800000000000000000D0
:105A9000780500200C93002BC5D000228DF8FC3037
:105AA0000123CDE909328DF88720029306921292E4
:105AB0000F920D923FAE049B13F0020302D00299A5
:105AC0000231029104992E9D11F0840805D10899A4
:105AD00002980F1A002F00F3A1806AB101226260C0
:105AE0002D9A013201350DF18701072A2E952D924D
:105AF000216000F3CB8308346BB12D9B22AA0133C4
:105B000002352260072B4FF002022E952D93626022
